{
  "address": "0xCAeD402b0859C074aeEd3c5BA4E6DC9e6EC6905b",
  "abi": [
    {
      "inputs": [],
      "stateMutability": "nonpayable",
      "type": "constructor"
    },
    {
      "inputs": [
        {
          "internalType": "address",
          "name": "_tokenAddress",
          "type": "address"
        }
      ],
      "name": "createExchange",
      "outputs": [
        {
          "internalType": "address",
          "name": "",
          "type": "address"
        }
      ],
      "stateMutability": "nonpayable",
      "type": "function"
    },
    {
      "inputs": [
        {
          "internalType": "address",
          "name": "_tokenAddress",
          "type": "address"
        }
      ],
      "name": "getExchange",
      "outputs": [
        {
          "internalType": "address",
          "name": "",
          "type": "address"
        }
      ],
      "stateMutability": "view",
      "type": "function"
    },
    {
      "inputs": [
        {
          "internalType": "address",
          "name": "",
          "type": "address"
        }
      ],
      "name": "tokenToExchange",
      "outputs": [
        {
          "internalType": "address",
          "name": "",
          "type": "address"
        }
      ],
      "stateMutability": "view",
      "type": "function"
    }
  ],
  "transactionHash": "0x1f93558249c4c0e59525726a3e52f02d279f1e485da59db806074616953ab7bc",
  "args": [],
  "numDeployments": 1,
  "solcInputHash": "7c8a1e900639b07a9dc279d9ac9dd633",
  "bytecode": "0x608060405234801561001057600080fd5b50611cdb806100206000396000f3fe608060405234801561001057600080fd5b50600436106100415760003560e01c806306f2bf62146100465780631648f38e1461008e578063c3c49a63146100a1575b600080fd5b610072610054366004610206565b6001600160a01b039081166000908152602081905260409020541690565b6040516001600160a01b03909116815260200160405180910390f35b61007261009c366004610206565b6100ca565b6100726100af366004610206565b6000602081905290815260409020546001600160a01b031681565b60006001600160a01b03821661011f5760405162461bcd60e51b8152602060048201526015602482015274696e76616c696420746f6b656e206164647265737360581b60448201526064015b60405180910390fd5b6001600160a01b0382811660009081526020819052604090205416156101875760405162461bcd60e51b815260206004820152601760248201527f65786368616e676520616c7265616479206578697374730000000000000000006044820152606401610116565b600082604051610196906101f9565b6001600160a01b039091168152602001604051809103906000f0801580156101c2573d6000803e3d6000fd5b506001600160a01b03938416600090815260208190526040902080546001600160a01b031916948216949094179093555090919050565b611a718061023583390190565b600060208284031215610217578081fd5b81356001600160a01b038116811461022d578182fd5b939250505056fe60806040523480156200001157600080fd5b5060405162001a7138038062001a718339810160408190526200003491620001cf565b604080518082018252600b81526a5a756e69737761702d563160a81b6020808301918252835180850190945260078452665a554e492d563160c81b908401528151919291620000869160039162000129565b5080516200009c90600490602084019062000129565b5050506001600160a01b038116620000fa5760405162461bcd60e51b815260206004820152601560248201527f696e76616c696420746f6b656e20616464726573730000000000000000000000604482015260640160405180910390fd5b600580546001600160a01b039092166001600160a01b031992831617905560068054909116331790556200023c565b8280546200013790620001ff565b90600052602060002090601f0160209004810192826200015b5760008555620001a6565b82601f106200017657805160ff1916838001178555620001a6565b82800160010185558215620001a6579182015b82811115620001a657825182559160200191906001019062000189565b50620001b4929150620001b8565b5090565b5b80821115620001b45760008155600101620001b9565b600060208284031215620001e1578081fd5b81516001600160a01b0381168114620001f8578182fd5b9392505050565b600181811c908216806200021457607f821691505b602082108114156200023657634e487b7160e01b600052602260045260246000fd5b50919050565b611825806200024c6000396000f3fe6080604052600436106101355760003560e01c806395d89b41116100ab578063a9059cbb1161006f578063a9059cbb14610365578063c2507ac114610385578063dd62ed3e146103a5578063e0486c8a146103eb578063f7a7e3241461040b578063f979dcd71461042b57600080fd5b806395d89b41146102a3578063966dae0e146102b85780639c8f9f23146102f05780639d76ea5814610325578063a457c2d71461034557600080fd5b8063389d9a40116100fd578063389d9a40146101f0578063395093511461020557806351c6590a1461022557806359bf5d391461023857806370a082311461024d5780638fc7a25d1461028357600080fd5b806306fdde031461013a578063095ea7b31461016557806318160ddd1461019557806323b872dd146101b4578063313ce567146101d4575b600080fd5b34801561014657600080fd5b5061014f61043e565b60405161015c91906116c8565b60405180910390f35b34801561017157600080fd5b506101856101803660046115ac565b6104d0565b604051901515815260200161015c565b3480156101a157600080fd5b506002545b60405190815260200161015c565b3480156101c057600080fd5b506101856101cf36600461156c565b6104e8565b3480156101e057600080fd5b506040516012815260200161015c565b6102036101fe366004611627565b61050c565b005b34801561021157600080fd5b506101856102203660046115ac565b61051a565b6101a66102333660046115f7565b610559565b34801561024457600080fd5b506101a661074a565b34801561025957600080fd5b506101a66102683660046114fc565b6001600160a01b031660009081526020819052604090205490565b34801561028f57600080fd5b506101a661029e3660046115f7565b6107cb565b3480156102af57600080fd5b5061014f61082c565b3480156102c457600080fd5b506006546102d8906001600160a01b031681565b6040516001600160a01b03909116815260200161015c565b3480156102fc57600080fd5b5061031061030b3660046115f7565b61083b565b6040805192835260208301919091520161015c565b34801561033157600080fd5b506005546102d8906001600160a01b031681565b34801561035157600080fd5b506101856103603660046115ac565b610991565b34801561037157600080fd5b506101856103803660046115ac565b610a23565b34801561039157600080fd5b506101a66103a03660046115f7565b610a31565b3480156103b157600080fd5b506101a66103c0366004611534565b6001600160a01b03918216600090815260016020908152604080832093909416825291909152205490565b3480156103f757600080fd5b5061020361040636600461164b565b610a90565b34801561041757600080fd5b5061020361042636600461166c565b610bb6565b6102036104393660046115f7565b610daf565b60606003805461044d90611789565b80601f016020809104026020016040519081016040528092919081815260200182805461047990611789565b80156104c65780601f1061049b576101008083540402835291602001916104c6565b820191906000526020600020905b8154815290600101906020018083116104a957829003601f168201915b5050505050905090565b6000336104de818585610dbc565b5060019392505050565b6000336104f6858285610ee1565b610501858585610f73565b506001949350505050565b6105168282611141565b5050565b3360008181526001602090815260408083206001600160a01b03871684529091528120549091906104de908290869061055490879061171b565b610dbc565b600061056361074a565b610602576005546040516323b872dd60e01b81526001600160a01b039091169081906323b872dd9061059d903390309088906004016116a4565b602060405180830381600087803b1580156105b757600080fd5b505af11580156105cb573d6000803e3d6000fd5b505050506040513d601f19601f820116820180604052508101906105ef91906115d7565b50476105fb338261123b565b9392505050565b600061060e3447611772565b9050600061061a61074a565b90506000826106298334611753565b6106339190611733565b90508085101561068a5760405162461bcd60e51b815260206004820152601960248201527f696e73756666696369656e7420746f6b656e20616d6f756e740000000000000060448201526064015b60405180910390fd5b6005546040516323b872dd60e01b81526001600160a01b039091169081906323b872dd906106c0903390309087906004016116a4565b602060405180830381600087803b1580156106da57600080fd5b505af11580156106ee573d6000803e3d6000fd5b505050506040513d601f19601f8201168201806040525081019061071291906115d7565b506000843461072060025490565b61072a9190611753565b6107349190611733565b9050610740338261123b565b9695505050505050565b6005546040516370a0823160e01b81523060048201526000916001600160a01b0316906370a082319060240160206040518083038186803b15801561078e57600080fd5b505afa1580156107a2573d6000803e3d6000fd5b505050506040513d601f19601f820116820180604052508101906107c6919061160f565b905090565b60008082116108155760405162461bcd60e51b81526020600482015260166024820152751d1bdad95b94dbdb19081a5cc81d1bdbc81cdb585b1b60521b6044820152606401610681565b600061081f61074a565b90506105fb83824761131a565b60606004805461044d90611789565b6000806000831161087f5760405162461bcd60e51b815260206004820152600e60248201526d1a5b9d985b1a5908185b5bdd5b9d60921b6044820152606401610681565b600061088a60025490565b6108948547611753565b61089e9190611733565b905060006108ab60025490565b856108b461074a565b6108be9190611753565b6108c89190611733565b90506108d433866113b6565b604051339083156108fc029084906000818181858888f19350505050158015610901573d6000803e3d6000fd5b5060055460405163a9059cbb60e01b8152336004820152602481018390526001600160a01b039091169063a9059cbb90604401602060405180830381600087803b15801561094e57600080fd5b505af1158015610962573d6000803e3d6000fd5b505050506040513d601f19601f8201168201806040525081019061098691906115d7565b509094909350915050565b3360008181526001602090815260408083206001600160a01b038716845290915281205490919083811015610a165760405162461bcd60e51b815260206004820152602560248201527f45524332303a2064656372656173656420616c6c6f77616e63652062656c6f77604482015264207a65726f60d81b6064820152608401610681565b6105018286868403610dbc565b6000336104de818585610f73565b6000808211610a795760405162461bcd60e51b8152602060048201526014602482015273195d1a14dbdb19081a5cc81d1bdbc81cdb585b1b60621b6044820152606401610681565b6000610a8361074a565b90506105fb83478361131a565b6000610a9a61074a565b90506000610aa984834761131a565b905082811015610afb5760405162461bcd60e51b815260206004820152601a60248201527f696e73756666696369656e74206f757470757420616d6f756e740000000000006044820152606401610681565b6005546040516323b872dd60e01b81526001600160a01b03909116906323b872dd90610b2f903390309089906004016116a4565b602060405180830381600087803b158015610b4957600080fd5b505af1158015610b5d573d6000803e3d6000fd5b505050506040513d601f19601f82011682018060405250810190610b8191906115d7565b50604051339082156108fc029083906000818181858888f19350505050158015610baf573d6000803e3d6000fd5b5050505050565b6006546040516303795fb160e11b81526001600160a01b03838116600483015260009216906306f2bf6290602401602060405180830381600087803b158015610bfe57600080fd5b505af1158015610c12573d6000803e3d6000fd5b505050506040513d601f19601f82011682018060405250810190610c369190611518565b90506001600160a01b03811615801590610c5957506001600160a01b0381163014155b610ca55760405162461bcd60e51b815260206004820152601860248201527f696e76616c69642065786368616e6765206164647265737300000000000000006044820152606401610681565b6000610caf61074a565b90506000610cbe86834761131a565b6005546040516323b872dd60e01b81529192506001600160a01b0316906323b872dd90610cf390339030908b906004016116a4565b602060405180830381600087803b158015610d0d57600080fd5b505af1158015610d21573d6000803e3d6000fd5b505050506040513d601f19601f82011682018060405250810190610d4591906115d7565b5060405162e2766960e61b8152600481018690523360248201526001600160a01b0384169063389d9a409083906044016000604051808303818588803b158015610d8e57600080fd5b505af1158015610da2573d6000803e3d6000fd5b5050505050505050505050565b610db98133611141565b50565b6001600160a01b038316610e1e5760405162461bcd60e51b8152602060048201526024808201527f45524332303a20617070726f76652066726f6d20746865207a65726f206164646044820152637265737360e01b6064820152608401610681565b6001600160a01b038216610e7f5760405162461bcd60e51b815260206004820152602260248201527f45524332303a20617070726f766520746f20746865207a65726f206164647265604482015261737360f01b6064820152608401610681565b6001600160a01b0383811660008181526001602090815260408083209487168084529482529182902085905590518481527f8c5be1e5ebec7d5bd14f71427d1e84f3dd0314c0f7b2291e5b200ac8c7c3b92591015b60405180910390a3505050565b6001600160a01b038381166000908152600160209081526040808320938616835292905220546000198114610f6d5781811015610f605760405162461bcd60e51b815260206004820152601d60248201527f45524332303a20696e73756666696369656e7420616c6c6f77616e63650000006044820152606401610681565b610f6d8484848403610dbc565b50505050565b6001600160a01b038316610fd75760405162461bcd60e51b815260206004820152602560248201527f45524332303a207472616e736665722066726f6d20746865207a65726f206164604482015264647265737360d81b6064820152608401610681565b6001600160a01b0382166110395760405162461bcd60e51b815260206004820152602360248201527f45524332303a207472616e7366657220746f20746865207a65726f206164647260448201526265737360e81b6064820152608401610681565b6001600160a01b038316600090815260208190526040902054818110156110b15760405162461bcd60e51b815260206004820152602660248201527f45524332303a207472616e7366657220616d6f756e7420657863656564732062604482015265616c616e636560d01b6064820152608401610681565b6001600160a01b038085166000908152602081905260408082208585039055918516815290812080548492906110e890849061171b565b92505081905550826001600160a01b0316846001600160a01b03167fddf252ad1be2c89b69c2b068fc378daa952ba7f163c4a11628f55a4df523b3ef8460405161113491815260200190565b60405180910390a3610f6d565b600061114b61074a565b905060006111633461115d8147611772565b8461131a565b9050838110156111b55760405162461bcd60e51b815260206004820152601a60248201527f696e73756666696369656e74206f757470757420616d6f756e740000000000006044820152606401610681565b60055460405163a9059cbb60e01b81526001600160a01b038581166004830152602482018490529091169063a9059cbb90604401602060405180830381600087803b15801561120357600080fd5b505af1158015611217573d6000803e3d6000fd5b505050506040513d601f19601f82011682018060405250810190610baf91906115d7565b6001600160a01b0382166112915760405162461bcd60e51b815260206004820152601f60248201527f45524332303a206d696e7420746f20746865207a65726f2061646472657373006044820152606401610681565b80600260008282546112a3919061171b565b90915550506001600160a01b038216600090815260208190526040812080548392906112d090849061171b565b90915550506040518181526001600160a01b038316906000907fddf252ad1be2c89b69c2b068fc378daa952ba7f163c4a11628f55a4df523b3ef9060200160405180910390a35050565b6000808311801561132b5750600082115b61136a5760405162461bcd60e51b815260206004820152601060248201526f696e76616c696420726573657276657360801b6044820152606401610681565b6000611377856063611753565b905060006113858483611753565b9050600082611395876064611753565b61139f919061171b565b90506113ab8183611733565b979650505050505050565b6001600160a01b0382166114165760405162461bcd60e51b815260206004820152602160248201527f45524332303a206275726e2066726f6d20746865207a65726f206164647265736044820152607360f81b6064820152608401610681565b6001600160a01b0382166000908152602081905260409020548181101561148a5760405162461bcd60e51b815260206004820152602260248201527f45524332303a206275726e20616d6f756e7420657863656564732062616c616e604482015261636560f01b6064820152608401610681565b6001600160a01b03831660009081526020819052604081208383039055600280548492906114b9908490611772565b90915550506040518281526000906001600160a01b038516907fddf252ad1be2c89b69c2b068fc378daa952ba7f163c4a11628f55a4df523b3ef90602001610ed4565b60006020828403121561150d578081fd5b81356105fb816117da565b600060208284031215611529578081fd5b81516105fb816117da565b60008060408385031215611546578081fd5b8235611551816117da565b91506020830135611561816117da565b809150509250929050565b600080600060608486031215611580578081fd5b833561158b816117da565b9250602084013561159b816117da565b929592945050506040919091013590565b600080604083850312156115be578182fd5b82356115c9816117da565b946020939093013593505050565b6000602082840312156115e8578081fd5b815180151581146105fb578182fd5b600060208284031215611608578081fd5b5035919050565b600060208284031215611620578081fd5b5051919050565b60008060408385031215611639578182fd5b823591506020830135611561816117da565b6000806040838503121561165d578182fd5b50508035926020909101359150565b600080600060608486031215611680578283fd5b83359250602084013591506040840135611699816117da565b809150509250925092565b6001600160a01b039384168152919092166020820152604081019190915260600190565b6000602080835283518082850152825b818110156116f4578581018301518582016040015282016116d8565b818111156117055783604083870101525b50601f01601f1916929092016040019392505050565b6000821982111561172e5761172e6117c4565b500190565b60008261174e57634e487b7160e01b81526012600452602481fd5b500490565b600081600019048311821515161561176d5761176d6117c4565b500290565b600082821015611784576117846117c4565b500390565b600181811c9082168061179d57607f821691505b602082108114156117be57634e487b7160e01b600052602260045260246000fd5b50919050565b634e487b7160e01b600052601160045260246000fd5b6001600160a01b0381168114610db957600080fdfea2646970667358221220061ee28d8b76a01f93e597586946886c2009ba74e92ef7d646d3753ed90ed2a064736f6c63430008040033a2646970667358221220961fd48bfa15b71a0283bd40c38ff79fb8607cc124d30e5c508cbd072ca9810c64736f6c63430008040033",
  "devdoc": {
    "kind": "dev",
    "methods": {},
    "version": 1
  },
  "userdoc": {
    "kind": "user",
    "methods": {},
    "version": 1
  },
  "storageLayout": {
    "storage": [
      {
        "astId": 3513,
        "contract": "contracts/Factory.sol:Factory",
        "label": "tokenToExchange",
        "offset": 0,
        "slot": "0",
        "type": "t_mapping(t_address,t_address)"
      }
    ],
    "types": {
      "t_address": {
        "encoding": "inplace",
        "label": "address",
        "numberOfBytes": "20"
      },
      "t_mapping(t_address,t_address)": {
        "encoding": "mapping",
        "key": "t_address",
        "label": "mapping(address => address)",
        "numberOfBytes": "32",
        "value": "t_address"
      }
    }
  }
}