{
  "_format": "hh-sol-artifact-1",
  "contractName": "wNft",
  "sourceName": "contracts/wNft.sol",
  "abi": [
    {
      "inputs": [
        {
          "internalType": "address",
          "name": "_source",
          "type": "address"
        },
        {
          "internalType": "uint256",
          "name": "_sourceChainId",
          "type": "uint256"
        },
        {
          "internalType": "string",
          "name": "collectionName",
          "type": "string"
        },
        {
          "internalType": "string",
          "name": "_symbol",
          "type": "string"
        }
      ],
      "stateMutability": "nonpayable",
      "type": "constructor"
    },
    {
      "anonymous": false,
      "inputs": [
        {
          "indexed": true,
          "internalType": "address",
          "name": "owner",
          "type": "address"
        },
        {
          "indexed": true,
          "internalType": "address",
          "name": "approved",
          "type": "address"
        },
        {
          "indexed": true,
          "internalType": "uint256",
          "name": "tokenId",
          "type": "uint256"
        }
      ],
      "name": "Approval",
      "type": "event"
    },
    {
      "anonymous": false,
      "inputs": [
        {
          "indexed": true,
          "internalType": "address",
          "name": "owner",
          "type": "address"
        },
        {
          "indexed": true,
          "internalType": "address",
          "name": "operator",
          "type": "address"
        },
        {
          "indexed": false,
          "internalType": "bool",
          "name": "approved",
          "type": "bool"
        }
      ],
      "name": "ApprovalForAll",
      "type": "event"
    },
    {
      "anonymous": false,
      "inputs": [
        {
          "indexed": true,
          "internalType": "address",
          "name": "previousOwner",
          "type": "address"
        },
        {
          "indexed": true,
          "internalType": "address",
          "name": "newOwner",
          "type": "address"
        }
      ],
      "name": "OwnershipTransferred",
      "type": "event"
    },
    {
      "anonymous": false,
      "inputs": [
        {
          "indexed": true,
          "internalType": "address",
          "name": "from",
          "type": "address"
        },
        {
          "indexed": true,
          "internalType": "address",
          "name": "to",
          "type": "address"
        },
        {
          "indexed": true,
          "internalType": "uint256",
          "name": "tokenId",
          "type": "uint256"
        }
      ],
      "name": "Transfer",
      "type": "event"
    },
    {
      "inputs": [
        {
          "internalType": "address",
          "name": "to",
          "type": "address"
        },
        {
          "internalType": "uint256",
          "name": "tokenId",
          "type": "uint256"
        }
      ],
      "name": "approve",
      "outputs": [],
      "stateMutability": "nonpayable",
      "type": "function"
    },
    {
      "inputs": [
        {
          "internalType": "address",
          "name": "owner",
          "type": "address"
        }
      ],
      "name": "balanceOf",
      "outputs": [
        {
          "internalType": "uint256",
          "name": "",
          "type": "uint256"
        }
      ],
      "stateMutability": "view",
      "type": "function"
    },
    {
      "inputs": [],
      "name": "baseURI",
      "outputs": [
        {
          "internalType": "string",
          "name": "",
          "type": "string"
        }
      ],
      "stateMutability": "view",
      "type": "function"
    },
    {
      "inputs": [
        {
          "internalType": "uint256",
          "name": "tokenId",
          "type": "uint256"
        }
      ],
      "name": "getApproved",
      "outputs": [
        {
          "internalType": "address",
          "name": "",
          "type": "address"
        }
      ],
      "stateMutability": "view",
      "type": "function"
    },
    {
      "inputs": [
        {
          "internalType": "uint256",
          "name": "sourceId",
          "type": "uint256"
        }
      ],
      "name": "getDistTokenId",
      "outputs": [
        {
          "internalType": "uint256",
          "name": "",
          "type": "uint256"
        }
      ],
      "stateMutability": "view",
      "type": "function"
    },
    {
      "inputs": [
        {
          "internalType": "uint256",
          "name": "id",
          "type": "uint256"
        }
      ],
      "name": "getSourceTokenId",
      "outputs": [
        {
          "internalType": "uint256",
          "name": "",
          "type": "uint256"
        }
      ],
      "stateMutability": "view",
      "type": "function"
    },
    {
      "inputs": [
        {
          "internalType": "address",
          "name": "owner",
          "type": "address"
        },
        {
          "internalType": "address",
          "name": "operator",
          "type": "address"
        }
      ],
      "name": "isApprovedForAll",
      "outputs": [
        {
          "internalType": "bool",
          "name": "",
          "type": "bool"
        }
      ],
      "stateMutability": "view",
      "type": "function"
    },
    {
      "inputs": [
        {
          "internalType": "address",
          "name": "to",
          "type": "address"
        },
        {
          "internalType": "string",
          "name": "uri",
          "type": "string"
        }
      ],
      "name": "mintItem",
      "outputs": [
        {
          "internalType": "uint256",
          "name": "",
          "type": "uint256"
        }
      ],
      "stateMutability": "nonpayable",
      "type": "function"
    },
    {
      "inputs": [
        {
          "internalType": "uint256",
          "name": "sourceTokenId",
          "type": "uint256"
        },
        {
          "internalType": "address",
          "name": "to",
          "type": "address"
        },
        {
          "internalType": "string",
          "name": "uri",
          "type": "string"
        }
      ],
      "name": "mintItem",
      "outputs": [
        {
          "internalType": "uint256",
          "name": "",
          "type": "uint256"
        }
      ],
      "stateMutability": "nonpayable",
      "type": "function"
    },
    {
      "inputs": [],
      "name": "name",
      "outputs": [
        {
          "internalType": "string",
          "name": "",
          "type": "string"
        }
      ],
      "stateMutability": "view",
      "type": "function"
    },
    {
      "inputs": [],
      "name": "owner",
      "outputs": [
        {
          "internalType": "address",
          "name": "",
          "type": "address"
        }
      ],
      "stateMutability": "view",
      "type": "function"
    },
    {
      "inputs": [
        {
          "internalType": "uint256",
          "name": "tokenId",
          "type": "uint256"
        }
      ],
      "name": "ownerOf",
      "outputs": [
        {
          "internalType": "address",
          "name": "",
          "type": "address"
        }
      ],
      "stateMutability": "view",
      "type": "function"
    },
    {
      "inputs": [],
      "name": "renounceOwnership",
      "outputs": [],
      "stateMutability": "nonpayable",
      "type": "function"
    },
    {
      "inputs": [
        {
          "internalType": "address",
          "name": "from",
          "type": "address"
        },
        {
          "internalType": "address",
          "name": "to",
          "type": "address"
        },
        {
          "internalType": "uint256",
          "name": "tokenId",
          "type": "uint256"
        }
      ],
      "name": "safeTransferFrom",
      "outputs": [],
      "stateMutability": "nonpayable",
      "type": "function"
    },
    {
      "inputs": [
        {
          "internalType": "address",
          "name": "from",
          "type": "address"
        },
        {
          "internalType": "address",
          "name": "to",
          "type": "address"
        },
        {
          "internalType": "uint256",
          "name": "tokenId",
          "type": "uint256"
        },
        {
          "internalType": "bytes",
          "name": "_data",
          "type": "bytes"
        }
      ],
      "name": "safeTransferFrom",
      "outputs": [],
      "stateMutability": "nonpayable",
      "type": "function"
    },
    {
      "inputs": [
        {
          "internalType": "address",
          "name": "operator",
          "type": "address"
        },
        {
          "internalType": "bool",
          "name": "approved",
          "type": "bool"
        }
      ],
      "name": "setApprovalForAll",
      "outputs": [],
      "stateMutability": "nonpayable",
      "type": "function"
    },
    {
      "inputs": [
        {
          "internalType": "string",
          "name": "_baseURI",
          "type": "string"
        }
      ],
      "name": "setBaseURI",
      "outputs": [],
      "stateMutability": "nonpayable",
      "type": "function"
    },
    {
      "inputs": [],
      "name": "sourceChainId",
      "outputs": [
        {
          "internalType": "uint256",
          "name": "",
          "type": "uint256"
        }
      ],
      "stateMutability": "view",
      "type": "function"
    },
    {
      "inputs": [],
      "name": "sourceNft",
      "outputs": [
        {
          "internalType": "address",
          "name": "",
          "type": "address"
        }
      ],
      "stateMutability": "view",
      "type": "function"
    },
    {
      "inputs": [
        {
          "internalType": "bytes4",
          "name": "interfaceId",
          "type": "bytes4"
        }
      ],
      "name": "supportsInterface",
      "outputs": [
        {
          "internalType": "bool",
          "name": "",
          "type": "bool"
        }
      ],
      "stateMutability": "view",
      "type": "function"
    },
    {
      "inputs": [],
      "name": "symbol",
      "outputs": [
        {
          "internalType": "string",
          "name": "",
          "type": "string"
        }
      ],
      "stateMutability": "view",
      "type": "function"
    },
    {
      "inputs": [
        {
          "internalType": "uint256",
          "name": "index",
          "type": "uint256"
        }
      ],
      "name": "tokenByIndex",
      "outputs": [
        {
          "internalType": "uint256",
          "name": "",
          "type": "uint256"
        }
      ],
      "stateMutability": "view",
      "type": "function"
    },
    {
      "inputs": [
        {
          "internalType": "address",
          "name": "owner",
          "type": "address"
        },
        {
          "internalType": "uint256",
          "name": "index",
          "type": "uint256"
        }
      ],
      "name": "tokenOfOwnerByIndex",
      "outputs": [
        {
          "internalType": "uint256",
          "name": "",
          "type": "uint256"
        }
      ],
      "stateMutability": "view",
      "type": "function"
    },
    {
      "inputs": [
        {
          "internalType": "uint256",
          "name": "tokenId",
          "type": "uint256"
        }
      ],
      "name": "tokenURI",
      "outputs": [
        {
          "internalType": "string",
          "name": "",
          "type": "string"
        }
      ],
      "stateMutability": "view",
      "type": "function"
    },
    {
      "inputs": [],
      "name": "totalSupply",
      "outputs": [
        {
          "internalType": "uint256",
          "name": "",
          "type": "uint256"
        }
      ],
      "stateMutability": "view",
      "type": "function"
    },
    {
      "inputs": [
        {
          "internalType": "address",
          "name": "from",
          "type": "address"
        },
        {
          "internalType": "address",
          "name": "to",
          "type": "address"
        },
        {
          "internalType": "uint256",
          "name": "tokenId",
          "type": "uint256"
        }
      ],
      "name": "transferFrom",
      "outputs": [],
      "stateMutability": "nonpayable",
      "type": "function"
    },
    {
      "inputs": [
        {
          "internalType": "address",
          "name": "newOwner",
          "type": "address"
        }
      ],
      "name": "transferOwnership",
      "outputs": [],
      "stateMutability": "nonpayable",
      "type": "function"
    }
  ],
  "bytecode": "0x60806040523480156200001157600080fd5b506040516200234a3803806200234a833981016040819052620000349162000260565b8181818181600090805190602001906200005092919062000107565b5080516200006690600190602084019062000107565b505050620000836200007d620000b160201b60201c565b620000b5565b5050600e80546001600160a01b0319166001600160a01b03959095169490941790935550600f555062000343565b3390565b600a80546001600160a01b038381166001600160a01b0319831681179093556040519116919082907f8be0079c531659141344cd1fd0a4f28419497f9722a3daafe3b4186f6b6457e090600090a35050565b8280546200011590620002f0565b90600052602060002090601f01602090048101928262000139576000855562000184565b82601f106200015457805160ff191683800117855562000184565b8280016001018555821562000184579182015b828111156200018457825182559160200191906001019062000167565b506200019292915062000196565b5090565b5b8082111562000192576000815560010162000197565b600082601f830112620001be578081fd5b81516001600160401b0380821115620001db57620001db6200032d565b604051601f8301601f19908116603f011681019082821181831017156200020657620002066200032d565b8160405283815260209250868385880101111562000222578485fd5b8491505b8382101562000245578582018301518183018401529082019062000226565b838211156200025657848385830101525b9695505050505050565b6000806000806080858703121562000276578384fd5b84516001600160a01b03811681146200028d578485fd5b6020860151604087015191955093506001600160401b0380821115620002b1578384fd5b620002bf88838901620001ad565b93506060870151915080821115620002d5578283fd5b50620002e487828801620001ad565b91505092959194509250565b600181811c908216806200030557607f821691505b602082108114156200032757634e487b7160e01b600052602260045260246000fd5b50919050565b634e487b7160e01b600052604160045260246000fd5b611ff780620003536000396000f3fe608060405234801561001057600080fd5b50600436106101a95760003560e01c806342842e0e116100f95780638da5cb5b11610097578063b88d4fde11610071578063b88d4fde14610377578063c87b56dd1461038a578063e985e9c51461039d578063f2fde38b146103d957600080fd5b80638da5cb5b1461034b57806395d89b411461035c578063a22cb4651461036457600080fd5b80636352211e116100d35780636352211e146103155780636c0360eb1461032857806370a0823114610330578063715018a61461034357600080fd5b806342842e0e146102dc5780634f6ccce7146102ef57806355f804b31461030257600080fd5b8063165f97731161016657806323b872dd1161014057806323b872dd1461028357806323c92642146102965780632f745c59146102b65780633c5d9a4f146102c957600080fd5b8063165f977314610255578063174b1ee81461026857806318160ddd1461027b57600080fd5b806301ffc9a7146101ae57806306fdde03146101d6578063081812fc146101eb578063095ea7b314610216578063110bcd451461022b5780631544298e1461024c575b600080fd5b6101c16101bc366004611c35565b6103ec565b60405190151581526020015b60405180910390f35b6101de6103fd565b6040516101cd9190611da5565b6101fe6101f9366004611ca0565b61048f565b6040516001600160a01b0390911681526020016101cd565b610229610224366004611c0c565b61051c565b005b61023e610239366004611bc0565b610632565b6040519081526020016101cd565b61023e600f5481565b61023e610263366004611ca0565b61066a565b600e546101fe906001600160a01b031681565b60085461023e565b610229610291366004611ad2565b6106bb565b61023e6102a4366004611ca0565b60009081526010602052604090205490565b61023e6102c4366004611c0c565b6106ec565b61023e6102d7366004611cb8565b610782565b6102296102ea366004611ad2565b6107aa565b61023e6102fd366004611ca0565b6107c5565b610229610310366004611c6d565b610866565b6101fe610323366004611ca0565b6108a7565b6101de61091e565b61023e61033e366004611a86565b6109ac565b610229610a33565b600a546001600160a01b03166101fe565b6101de610a69565b610229610372366004611b86565b610a78565b610229610385366004611b0d565b610a83565b6101de610398366004611ca0565b610abb565b6101c16103ab366004611aa0565b6001600160a01b03918216600090815260056020908152604080832093909416825291909152205460ff1690565b6102296103e7366004611a86565b610ac6565b60006103f782610b61565b92915050565b60606000805461040c90611eff565b80601f016020809104026020016040519081016040528092919081815260200182805461043890611eff565b80156104855780601f1061045a57610100808354040283529160200191610485565b820191906000526020600020905b81548152906001019060200180831161046857829003601f168201915b5050505050905090565b600061049a82610b86565b6105005760405162461bcd60e51b815260206004820152602c60248201527f4552433732313a20617070726f76656420717565727920666f72206e6f6e657860448201526b34b9ba32b73a103a37b5b2b760a11b60648201526084015b60405180910390fd5b506000908152600460205260409020546001600160a01b031690565b6000610527826108a7565b9050806001600160a01b0316836001600160a01b031614156105955760405162461bcd60e51b815260206004820152602160248201527f4552433732313a20617070726f76616c20746f2063757272656e74206f776e656044820152603960f91b60648201526084016104f7565b336001600160a01b03821614806105b157506105b181336103ab565b6106235760405162461bcd60e51b815260206004820152603860248201527f4552433732313a20617070726f76652063616c6c6572206973206e6f74206f7760448201527f6e6572206e6f7220617070726f76656420666f7220616c6c000000000000000060648201526084016104f7565b61062d8383610ba3565b505050565b6000610642600d80546001019055565b600061064d600d5490565b90506106598482610c11565b6106638184610c2b565b9392505050565b60008061067660085490565b905060015b8181116106b15760008181526010602052604090205484141561069f579392505050565b806106a981611f3a565b91505061067b565b5060009392505050565b6106c53382610cb6565b6106e15760405162461bcd60e51b81526004016104f790611e3f565b61062d838383610da0565b60006106f7836109ac565b82106107595760405162461bcd60e51b815260206004820152602b60248201527f455243373231456e756d657261626c653a206f776e657220696e646578206f7560448201526a74206f6620626f756e647360a81b60648201526084016104f7565b506001600160a01b03919091166000908152600660209081526040808320938352929052205490565b60008061078f8484610632565b60008181526010602052604090208690559150509392505050565b61062d83838360405180602001604052806000815250610a83565b60006107d060085490565b82106108335760405162461bcd60e51b815260206004820152602c60248201527f455243373231456e756d657261626c653a20676c6f62616c20696e646578206f60448201526b7574206f6620626f756e647360a01b60648201526084016104f7565b6008828154811061085457634e487b7160e01b600052603260045260246000fd5b90600052602060002001549050919050565b600a546001600160a01b031633146108905760405162461bcd60e51b81526004016104f790611e0a565b80516108a390600c90602084019061193c565b5050565b6000818152600260205260408120546001600160a01b0316806103f75760405162461bcd60e51b815260206004820152602960248201527f4552433732313a206f776e657220717565727920666f72206e6f6e657869737460448201526832b73a103a37b5b2b760b91b60648201526084016104f7565b600c805461092b90611eff565b80601f016020809104026020016040519081016040528092919081815260200182805461095790611eff565b80156109a45780601f10610979576101008083540402835291602001916109a4565b820191906000526020600020905b81548152906001019060200180831161098757829003601f168201915b505050505081565b60006001600160a01b038216610a175760405162461bcd60e51b815260206004820152602a60248201527f4552433732313a2062616c616e636520717565727920666f7220746865207a65604482015269726f206164647265737360b01b60648201526084016104f7565b506001600160a01b031660009081526003602052604090205490565b600a546001600160a01b03163314610a5d5760405162461bcd60e51b81526004016104f790611e0a565b610a676000610f47565b565b60606001805461040c90611eff565b6108a3338383610f99565b610a8d3383610cb6565b610aa95760405162461bcd60e51b81526004016104f790611e3f565b610ab584848484611068565b50505050565b60606103f78261109b565b600a546001600160a01b03163314610af05760405162461bcd60e51b81526004016104f790611e0a565b6001600160a01b038116610b555760405162461bcd60e51b815260206004820152602660248201527f4f776e61626c653a206e6577206f776e657220697320746865207a65726f206160448201526564647265737360d01b60648201526084016104f7565b610b5e81610f47565b50565b60006001600160e01b0319821663780e9d6360e01b14806103f757506103f7826111fd565b6000908152600260205260409020546001600160a01b0316151590565b600081815260046020526040902080546001600160a01b0319166001600160a01b0384169081179091558190610bd8826108a7565b6001600160a01b03167f8c5be1e5ebec7d5bd14f71427d1e84f3dd0314c0f7b2291e5b200ac8c7c3b92560405160405180910390a45050565b6108a382826040518060200160405280600081525061124d565b610c3482610b86565b610c975760405162461bcd60e51b815260206004820152602e60248201527f45524337323155524953746f726167653a2055524920736574206f66206e6f6e60448201526d32bc34b9ba32b73a103a37b5b2b760911b60648201526084016104f7565b6000828152600b60209081526040909120825161062d9284019061193c565b6000610cc182610b86565b610d225760405162461bcd60e51b815260206004820152602c60248201527f4552433732313a206f70657261746f7220717565727920666f72206e6f6e657860448201526b34b9ba32b73a103a37b5b2b760a11b60648201526084016104f7565b6000610d2d836108a7565b9050806001600160a01b0316846001600160a01b03161480610d685750836001600160a01b0316610d5d8461048f565b6001600160a01b0316145b80610d9857506001600160a01b0380821660009081526005602090815260408083209388168352929052205460ff165b949350505050565b826001600160a01b0316610db3826108a7565b6001600160a01b031614610e175760405162461bcd60e51b815260206004820152602560248201527f4552433732313a207472616e736665722066726f6d20696e636f72726563742060448201526437bbb732b960d91b60648201526084016104f7565b6001600160a01b038216610e795760405162461bcd60e51b8152602060048201526024808201527f4552433732313a207472616e7366657220746f20746865207a65726f206164646044820152637265737360e01b60648201526084016104f7565b610e84838383611280565b610e8f600082610ba3565b6001600160a01b0383166000908152600360205260408120805460019290610eb8908490611ebc565b90915550506001600160a01b0382166000908152600360205260408120805460019290610ee6908490611e90565b909155505060008181526002602052604080822080546001600160a01b0319166001600160a01b0386811691821790925591518493918716917fddf252ad1be2c89b69c2b068fc378daa952ba7f163c4a11628f55a4df523b3ef91a4505050565b600a80546001600160a01b038381166001600160a01b0319831681179093556040519116919082907f8be0079c531659141344cd1fd0a4f28419497f9722a3daafe3b4186f6b6457e090600090a35050565b816001600160a01b0316836001600160a01b03161415610ffb5760405162461bcd60e51b815260206004820152601960248201527f4552433732313a20617070726f766520746f2063616c6c65720000000000000060448201526064016104f7565b6001600160a01b03838116600081815260056020908152604080832094871680845294825291829020805460ff191686151590811790915591519182527f17307eab39ab6107e8899845ad3d59bd9653f200f220920489ca2b5937696c31910160405180910390a3505050565b611073848484610da0565b61107f8484848461128b565b610ab55760405162461bcd60e51b81526004016104f790611db8565b60606110a682610b86565b61110c5760405162461bcd60e51b815260206004820152603160248201527f45524337323155524953746f726167653a2055524920717565727920666f72206044820152703737b732bc34b9ba32b73a103a37b5b2b760791b60648201526084016104f7565b6000828152600b60205260408120805461112590611eff565b80601f016020809104026020016040519081016040528092919081815260200182805461115190611eff565b801561119e5780601f106111735761010080835404028352916020019161119e565b820191906000526020600020905b81548152906001019060200180831161118157829003601f168201915b5050505050905060006111af611398565b90508051600014156111c2575092915050565b8151156111f45780826040516020016111dc929190611d39565b60405160208183030381529060405292505050919050565b610d98846113a7565b60006001600160e01b031982166380ac58cd60e01b148061122e57506001600160e01b03198216635b5e139f60e01b145b806103f757506301ffc9a760e01b6001600160e01b03198316146103f7565b6112578383611471565b611264600084848461128b565b61062d5760405162461bcd60e51b81526004016104f790611db8565b61062d8383836115b0565b60006001600160a01b0384163b1561138d57604051630a85bd0160e11b81526001600160a01b0385169063150b7a02906112cf903390899088908890600401611d68565b602060405180830381600087803b1580156112e957600080fd5b505af1925050508015611319575060408051601f3d908101601f1916820190925261131691810190611c51565b60015b611373573d808015611347576040519150601f19603f3d011682016040523d82523d6000602084013e61134c565b606091505b50805161136b5760405162461bcd60e51b81526004016104f790611db8565b805181602001fd5b6001600160e01b031916630a85bd0160e11b149050610d98565b506001949350505050565b6060600c805461040c90611eff565b60606113b282610b86565b6114165760405162461bcd60e51b815260206004820152602f60248201527f4552433732314d657461646174613a2055524920717565727920666f72206e6f60448201526e3732bc34b9ba32b73a103a37b5b2b760891b60648201526084016104f7565b6000611420611398565b905060008151116114405760405180602001604052806000815250610663565b8061144a84611668565b60405160200161145b929190611d39565b6040516020818303038152906040529392505050565b6001600160a01b0382166114c75760405162461bcd60e51b815260206004820181905260248201527f4552433732313a206d696e7420746f20746865207a65726f206164647265737360448201526064016104f7565b6114d081610b86565b1561151d5760405162461bcd60e51b815260206004820152601c60248201527f4552433732313a20746f6b656e20616c7265616479206d696e7465640000000060448201526064016104f7565b61152960008383611280565b6001600160a01b0382166000908152600360205260408120805460019290611552908490611e90565b909155505060008181526002602052604080822080546001600160a01b0319166001600160a01b03861690811790915590518392907fddf252ad1be2c89b69c2b068fc378daa952ba7f163c4a11628f55a4df523b3ef908290a45050565b6001600160a01b03831661160b5761160681600880546000838152600960205260408120829055600182018355919091527ff3f7a9fe364faab93b216da50a3214154f22a0a2b415b23a84c8169e8b636ee30155565b61162e565b816001600160a01b0316836001600160a01b03161461162e5761162e8382611782565b6001600160a01b0382166116455761062d8161181f565b826001600160a01b0316826001600160a01b03161461062d5761062d82826118f8565b60608161168c5750506040805180820190915260018152600360fc1b602082015290565b8160005b81156116b657806116a081611f3a565b91506116af9050600a83611ea8565b9150611690565b60008167ffffffffffffffff8111156116df57634e487b7160e01b600052604160045260246000fd5b6040519080825280601f01601f191660200182016040528015611709576020820181803683370190505b5090505b8415610d985761171e600183611ebc565b915061172b600a86611f55565b611736906030611e90565b60f81b81838151811061175957634e487b7160e01b600052603260045260246000fd5b60200101906001600160f81b031916908160001a90535061177b600a86611ea8565b945061170d565b6000600161178f846109ac565b6117999190611ebc565b6000838152600760205260409020549091508082146117ec576001600160a01b03841660009081526006602090815260408083208584528252808320548484528184208190558352600790915290208190555b5060009182526007602090815260408084208490556001600160a01b039094168352600681528383209183525290812055565b60085460009061183190600190611ebc565b6000838152600960205260408120546008805493945090928490811061186757634e487b7160e01b600052603260045260246000fd5b90600052602060002001549050806008838154811061189657634e487b7160e01b600052603260045260246000fd5b60009182526020808320909101929092558281526009909152604080822084905585825281205560088054806118dc57634e487b7160e01b600052603160045260246000fd5b6001900381819060005260206000200160009055905550505050565b6000611903836109ac565b6001600160a01b039093166000908152600660209081526040808320868452825280832085905593825260079052919091209190915550565b82805461194890611eff565b90600052602060002090601f01602090048101928261196a57600085556119b0565b82601f1061198357805160ff19168380011785556119b0565b828001600101855582156119b0579182015b828111156119b0578251825591602001919060010190611995565b506119bc9291506119c0565b5090565b5b808211156119bc57600081556001016119c1565b600067ffffffffffffffff808411156119f0576119f0611f95565b604051601f8501601f19908116603f01168101908282118183101715611a1857611a18611f95565b81604052809350858152868686011115611a3157600080fd5b858560208301376000602087830101525050509392505050565b80356001600160a01b0381168114611a6257600080fd5b919050565b600082601f830112611a77578081fd5b610663838335602085016119d5565b600060208284031215611a97578081fd5b61066382611a4b565b60008060408385031215611ab2578081fd5b611abb83611a4b565b9150611ac960208401611a4b565b90509250929050565b600080600060608486031215611ae6578081fd5b611aef84611a4b565b9250611afd60208501611a4b565b9150604084013590509250925092565b60008060008060808587031215611b22578081fd5b611b2b85611a4b565b9350611b3960208601611a4b565b925060408501359150606085013567ffffffffffffffff811115611b5b578182fd5b8501601f81018713611b6b578182fd5b611b7a878235602084016119d5565b91505092959194509250565b60008060408385031215611b98578182fd5b611ba183611a4b565b915060208301358015158114611bb5578182fd5b809150509250929050565b60008060408385031215611bd2578182fd5b611bdb83611a4b565b9150602083013567ffffffffffffffff811115611bf6578182fd5b611c0285828601611a67565b9150509250929050565b60008060408385031215611c1e578182fd5b611c2783611a4b565b946020939093013593505050565b600060208284031215611c46578081fd5b813561066381611fab565b600060208284031215611c62578081fd5b815161066381611fab565b600060208284031215611c7e578081fd5b813567ffffffffffffffff811115611c94578182fd5b610d9884828501611a67565b600060208284031215611cb1578081fd5b5035919050565b600080600060608486031215611ccc578283fd5b83359250611cdc60208501611a4b565b9150604084013567ffffffffffffffff811115611cf7578182fd5b611d0386828701611a67565b9150509250925092565b60008151808452611d25816020860160208601611ed3565b601f01601f19169290920160200192915050565b60008351611d4b818460208801611ed3565b835190830190611d5f818360208801611ed3565b01949350505050565b6001600160a01b0385811682528416602082015260408101839052608060608201819052600090611d9b90830184611d0d565b9695505050505050565b6020815260006106636020830184611d0d565b60208082526032908201527f4552433732313a207472616e7366657220746f206e6f6e20455243373231526560408201527131b2b4bb32b91034b6b83632b6b2b73a32b960711b606082015260800190565b6020808252818101527f4f776e61626c653a2063616c6c6572206973206e6f7420746865206f776e6572604082015260600190565b60208082526031908201527f4552433732313a207472616e736665722063616c6c6572206973206e6f74206f6040820152701ddb995c881b9bdc88185c1c1c9bdd9959607a1b606082015260800190565b60008219821115611ea357611ea3611f69565b500190565b600082611eb757611eb7611f7f565b500490565b600082821015611ece57611ece611f69565b500390565b60005b83811015611eee578181015183820152602001611ed6565b83811115610ab55750506000910152565b600181811c90821680611f1357607f821691505b60208210811415611f3457634e487b7160e01b600052602260045260246000fd5b50919050565b6000600019821415611f4e57611f4e611f69565b5060010190565b600082611f6457611f64611f7f565b500690565b634e487b7160e01b600052601160045260246000fd5b634e487b7160e01b600052601260045260246000fd5b634e487b7160e01b600052604160045260246000fd5b6001600160e01b031981168114610b5e57600080fdfea26469706673582212201d3c232908468940eea0fccfe76d77b51b992786ce5761823c9a928c3edee09364736f6c63430008040033",
  "linkReferences": {},
  "deployedLinkReferences": {}
}