{
  "_format": "hh-sol-artifact-1",
  "contractName": "YourContract",
  "sourceName": "contracts/YourContract.sol",
  "abi": [
    {
      "inputs": [],
      "stateMutability": "payable",
      "type": "constructor"
    },
    {
      "anonymous": false,
      "inputs": [
        {
          "indexed": false,
          "internalType": "address",
          "name": "sender",
          "type": "address"
        },
        {
          "indexed": false,
          "internalType": "string",
          "name": "purpose",
          "type": "string"
        }
      ],
      "name": "SetPurpose",
      "type": "event"
    },
    {
      "stateMutability": "payable",
      "type": "fallback"
    },
    {
      "inputs": [],
      "name": "purpose",
      "outputs": [
        {
          "internalType": "string",
          "name": "",
          "type": "string"
        }
      ],
      "stateMutability": "view",
      "type": "function"
    },
    {
      "inputs": [
        {
          "internalType": "string",
          "name": "newPurpose",
          "type": "string"
        }
      ],
      "name": "setPurpose",
      "outputs": [],
      "stateMutability": "payable",
      "type": "function"
    },
    {
      "stateMutability": "payable",
      "type": "receive"
    }
  ],
  "bytecode": "0x60c0604052601960808190527f4275696c64696e6720556e73746f707061626c6520417070730000000000000060a090815261003e9160009190610044565b50610118565b828054610050906100dd565b90600052602060002090601f01602090048101928261007257600085556100b8565b82601f1061008b57805160ff19168380011785556100b8565b828001600101855582156100b8579182015b828111156100b857825182559160200191906001019061009d565b506100c49291506100c8565b5090565b5b808211156100c457600081556001016100c9565b600181811c908216806100f157607f821691505b6020821081141561011257634e487b7160e01b600052602260045260246000fd5b50919050565b61059e806101276000396000f3fe60806040526004361061002a5760003560e01c806370740aab14610033578063eb68757f1461005e57005b3661003157005b005b34801561003f57600080fd5b50610048610071565b60405161005591906104fd565b60405180910390f35b61003161006c366004610311565b6100ff565b6000805461007e90610517565b80601f01602080910402602001604051908101604052809291908181526020018280546100aa90610517565b80156100f75780601f106100cc576101008083540402835291602001916100f7565b820191906000526020600020905b8154815290600101906020018083116100da57829003601f168201915b505050505081565b8051610112906000906020840190610278565b506101ce336040518060400160405280600e81526020016d73657420707572706f736520746f60901b8152506000805461014b90610517565b80601f016020809104026020016040519081016040528092919081815260200182805461017790610517565b80156101c45780601f10610199576101008083540402835291602001916101c4565b820191906000526020600020905b8154815290600101906020018083116101a757829003601f168201915b505050505061020b565b7f6ea5d6383a120235c7728a9a6751672a8ac068e4ed34dcca2ee444182c1812de336000604051610200929190610446565b60405180910390a150565b61025283838360405160240161022393929190610406565b60408051601f198184030181529190526020810180516001600160e01b031663fb77226560e01b179052610257565b505050565b80516a636f6e736f6c652e6c6f67602083016000808483855afa5050505050565b82805461028490610517565b90600052602060002090601f0160209004810192826102a657600085556102ec565b82601f106102bf57805160ff19168380011785556102ec565b828001600101855582156102ec579182015b828111156102ec5782518255916020019190600101906102d1565b506102f89291506102fc565b5090565b5b808211156102f857600081556001016102fd565b600060208284031215610322578081fd5b813567ffffffffffffffff80821115610339578283fd5b818401915084601f83011261034c578283fd5b81358181111561035e5761035e610552565b604051601f8201601f19908116603f0116810190838211818310171561038657610386610552565b8160405282815287602084870101111561039e578586fd5b826020860160208301379182016020019490945295945050505050565b60008151808452815b818110156103e0576020818501810151868301820152016103c4565b818111156103f15782602083870101525b50601f01601f19169290920160200192915050565b6001600160a01b038416815260606020820181905260009061042a908301856103bb565b828103604084015261043c81856103bb565b9695505050505050565b60018060a01b03831681526000602060408184015281845483600182811c91508083168061047557607f831692505b85831081141561049357634e487b7160e01b87526022600452602487fd5b60408801839052606088018180156104b257600181146104c3576104ed565b60ff198616825287820196506104ed565b60008b815260209020895b868110156104e7578154848201529085019089016104ce565b83019750505b50949a9950505050505050505050565b60208152600061051060208301846103bb565b9392505050565b600181811c9082168061052b57607f821691505b6020821081141561054c57634e487b7160e01b600052602260045260246000fd5b50919050565b634e487b7160e01b600052604160045260246000fdfea26469706673582212202e89bcff5295729617a39faddc5486c89e949034f4ecfdd1b91c66693adc040a64736f6c63430008040033",
  "linkReferences": {},
  "deployedLinkReferences": {}
}