{
  "address": "0x8431607D4610B26FA8587759B0a2fDa54B45BA1D",
  "abi": [
    {
      "inputs": [
        {
          "internalType": "string",
          "name": "name",
          "type": "string"
        },
        {
          "internalType": "string",
          "name": "symbol",
          "type": "string"
        }
      ],
      "name": "createNft",
      "outputs": [
        {
          "internalType": "address",
          "name": "",
          "type": "address"
        }
      ],
      "stateMutability": "nonpayable",
      "type": "function"
    },
    {
      "inputs": [
        {
          "internalType": "address",
          "name": "nftAddr",
          "type": "address"
        },
        {
          "internalType": "string",
          "name": "uri",
          "type": "string"
        }
      ],
      "name": "setBaseURI",
      "outputs": [],
      "stateMutability": "nonpayable",
      "type": "function"
    },
    {
      "inputs": [
        {
          "internalType": "address",
          "name": "nftAddr",
          "type": "address"
        },
        {
          "internalType": "address",
          "name": "owner",
          "type": "address"
        }
      ],
      "name": "transferOwnship",
      "outputs": [],
      "stateMutability": "nonpayable",
      "type": "function"
    }
  ],
  "transactionHash": "0xd029d1f6f32832654084cac4fac5b6ca7243ea8ac995d8198ddeb48726a58ba0",
  "args": [],
  "numDeployments": 1,
  "solcInputHash": "41db592a1f3db80dd24b8aea84ceb62f",
  "bytecode": "0x608060405234801561001057600080fd5b50612626806100206000396000f3fe608060405234801561001057600080fd5b50600436106100415760003560e01c80634f138e8c146100465780635eda171914610075578063884336511461008a575b600080fd5b61005961005436600461038f565b61009d565b6040516001600160a01b03909116815260200160405180910390f35b610088610083366004610311565b610107565b005b610088610098366004610343565b6101d5565b60008083836040516100ae90610261565b6100b992919061044b565b604051809103906000f0801580156100d5573d6000803e3d6000fd5b506001600160a01b038116600090815260208190526040902080546001600160a01b0319163317905591505092915050565b6001600160a01b038281166000908152602081905260409020541633146101755760405162461bcd60e51b815260206004820152601960248201527f6f6e6c792063726561746f722063616e207472616e736665720000000000000060448201526064015b60405180910390fd5b60405163f2fde38b60e01b81526001600160a01b03828116600483015283169063f2fde38b906024015b600060405180830381600087803b1580156101b957600080fd5b505af11580156101cd573d6000803e3d6000fd5b505050505050565b6001600160a01b038281166000908152602081905260409020541633146102355760405162461bcd60e51b81526020600482015260146024820152731bdb9b1e4818dc99585d1bdc8818d85b881cd95d60621b604482015260640161016c565b6040516355f804b360e01b81526001600160a01b038316906355f804b39061019f908490600401610431565b6121618061049083390190565b80356001600160a01b038116811461028557600080fd5b919050565b600082601f83011261029a578081fd5b813567ffffffffffffffff808211156102b5576102b5610479565b604051601f8301601f19908116603f011681019082821181831017156102dd576102dd610479565b816040528381528660208588010111156102f5578485fd5b8360208701602083013792830160200193909352509392505050565b60008060408385031215610323578182fd5b61032c8361026e565b915061033a6020840161026e565b90509250929050565b60008060408385031215610355578182fd5b61035e8361026e565b9150602083013567ffffffffffffffff811115610379578182fd5b6103858582860161028a565b9150509250929050565b600080604083850312156103a1578182fd5b823567ffffffffffffffff808211156103b8578384fd5b6103c48683870161028a565b935060208501359150808211156103d9578283fd5b506103858582860161028a565b60008151808452815b8181101561040b576020818501810151868301820152016103ef565b8181111561041c5782602083870101525b50601f01601f19169290920160200192915050565b60208152600061044460208301846103e6565b9392505050565b60408152600061045e60408301856103e6565b828103602084015261047081856103e6565b95945050505050565b634e487b7160e01b600052604160045260246000fdfe60806040523480156200001157600080fd5b506040516200216138038062002161833981016040819052620000349162000237565b8151829082906200004d906000906020850190620000de565b50805162000063906001906020840190620000de565b505050620000806200007a6200008860201b60201c565b6200008c565b5050620002f1565b3390565b600a80546001600160a01b038381166001600160a01b0319831681179093556040519116919082907f8be0079c531659141344cd1fd0a4f28419497f9722a3daafe3b4186f6b6457e090600090a35050565b828054620000ec906200029e565b90600052602060002090601f0160209004810192826200011057600085556200015b565b82601f106200012b57805160ff19168380011785556200015b565b828001600101855582156200015b579182015b828111156200015b5782518255916020019190600101906200013e565b50620001699291506200016d565b5090565b5b808211156200016957600081556001016200016e565b600082601f83011262000195578081fd5b81516001600160401b0380821115620001b257620001b2620002db565b604051601f8301601f19908116603f01168101908282118183101715620001dd57620001dd620002db565b81604052838152602092508683858801011115620001f9578485fd5b8491505b838210156200021c5785820183015181830184015290820190620001fd565b838211156200022d57848385830101525b9695505050505050565b600080604083850312156200024a578182fd5b82516001600160401b038082111562000261578384fd5b6200026f8683870162000184565b9350602085015191508082111562000285578283fd5b50620002948582860162000184565b9150509250929050565b600181811c90821680620002b357607f821691505b60208210811415620002d557634e487b7160e01b600052602260045260246000fd5b50919050565b634e487b7160e01b600052604160045260246000fd5b611e6080620003016000396000f3fe608060405234801561001057600080fd5b50600436106101425760003560e01c80636352211e116100b857806395d89b411161007c57806395d89b4114610293578063a22cb4651461029b578063b88d4fde146102ae578063c87b56dd146102c1578063e985e9c5146102d4578063f2fde38b1461031057600080fd5b80636352211e1461024c5780636c0360eb1461025f57806370a0823114610267578063715018a61461027a5780638da5cb5b1461028257600080fd5b806318160ddd1161010a57806318160ddd146101e557806323b872dd146101ed5780632f745c591461020057806342842e0e146102135780634f6ccce71461022657806355f804b31461023957600080fd5b806301ffc9a71461014757806306fdde031461016f578063081812fc14610184578063095ea7b3146101af578063110bcd45146101c4575b600080fd5b61015a610155366004611af3565b610323565b60405190151581526020015b60405180910390f35b610177610334565b6040516101669190611c0e565b610197610192366004611b5e565b6103c6565b6040516001600160a01b039091168152602001610166565b6101c26101bd366004611aca565b610453565b005b6101d76101d2366004611a7e565b610569565b604051908152602001610166565b6008546101d7565b6101c26101fb366004611990565b6105a1565b6101d761020e366004611aca565b6105d2565b6101c2610221366004611990565b610668565b6101d7610234366004611b5e565b610683565b6101c2610247366004611b2b565b610724565b61019761025a366004611b5e565b610765565b6101776107dc565b6101d7610275366004611944565b61086a565b6101c26108f1565b600a546001600160a01b0316610197565b610177610927565b6101c26102a9366004611a44565b610936565b6101c26102bc3660046119cb565b610941565b6101776102cf366004611b5e565b610979565b61015a6102e236600461195e565b6001600160a01b03918216600090815260056020908152604080832093909416825291909152205460ff1690565b6101c261031e366004611944565b610984565b600061032e82610a1f565b92915050565b60606000805461034390611d68565b80601f016020809104026020016040519081016040528092919081815260200182805461036f90611d68565b80156103bc5780601f10610391576101008083540402835291602001916103bc565b820191906000526020600020905b81548152906001019060200180831161039f57829003601f168201915b5050505050905090565b60006103d182610a44565b6104375760405162461bcd60e51b815260206004820152602c60248201527f4552433732313a20617070726f76656420717565727920666f72206e6f6e657860448201526b34b9ba32b73a103a37b5b2b760a11b60648201526084015b60405180910390fd5b506000908152600460205260409020546001600160a01b031690565b600061045e82610765565b9050806001600160a01b0316836001600160a01b031614156104cc5760405162461bcd60e51b815260206004820152602160248201527f4552433732313a20617070726f76616c20746f2063757272656e74206f776e656044820152603960f91b606482015260840161042e565b336001600160a01b03821614806104e857506104e881336102e2565b61055a5760405162461bcd60e51b815260206004820152603860248201527f4552433732313a20617070726f76652063616c6c6572206973206e6f74206f7760448201527f6e6572206e6f7220617070726f76656420666f7220616c6c0000000000000000606482015260840161042e565b6105648383610a61565b505050565b6000610579600d80546001019055565b6000610584600d5490565b90506105908482610acf565b61059a8184610ae9565b9392505050565b6105ab3382610b74565b6105c75760405162461bcd60e51b815260040161042e90611ca8565b610564838383610c5e565b60006105dd8361086a565b821061063f5760405162461bcd60e51b815260206004820152602b60248201527f455243373231456e756d657261626c653a206f776e657220696e646578206f7560448201526a74206f6620626f756e647360a81b606482015260840161042e565b506001600160a01b03919091166000908152600660209081526040808320938352929052205490565b61056483838360405180602001604052806000815250610941565b600061068e60085490565b82106106f15760405162461bcd60e51b815260206004820152602c60248201527f455243373231456e756d657261626c653a20676c6f62616c20696e646578206f60448201526b7574206f6620626f756e647360a01b606482015260840161042e565b6008828154811061071257634e487b7160e01b600052603260045260246000fd5b90600052602060002001549050919050565b600a546001600160a01b0316331461074e5760405162461bcd60e51b815260040161042e90611c73565b805161076190600c9060208401906117fa565b5050565b6000818152600260205260408120546001600160a01b03168061032e5760405162461bcd60e51b815260206004820152602960248201527f4552433732313a206f776e657220717565727920666f72206e6f6e657869737460448201526832b73a103a37b5b2b760b91b606482015260840161042e565b600c80546107e990611d68565b80601f016020809104026020016040519081016040528092919081815260200182805461081590611d68565b80156108625780601f1061083757610100808354040283529160200191610862565b820191906000526020600020905b81548152906001019060200180831161084557829003601f168201915b505050505081565b60006001600160a01b0382166108d55760405162461bcd60e51b815260206004820152602a60248201527f4552433732313a2062616c616e636520717565727920666f7220746865207a65604482015269726f206164647265737360b01b606482015260840161042e565b506001600160a01b031660009081526003602052604090205490565b600a546001600160a01b0316331461091b5760405162461bcd60e51b815260040161042e90611c73565b6109256000610e05565b565b60606001805461034390611d68565b610761338383610e57565b61094b3383610b74565b6109675760405162461bcd60e51b815260040161042e90611ca8565b61097384848484610f26565b50505050565b606061032e82610f59565b600a546001600160a01b031633146109ae5760405162461bcd60e51b815260040161042e90611c73565b6001600160a01b038116610a135760405162461bcd60e51b815260206004820152602660248201527f4f776e61626c653a206e6577206f776e657220697320746865207a65726f206160448201526564647265737360d01b606482015260840161042e565b610a1c81610e05565b50565b60006001600160e01b0319821663780e9d6360e01b148061032e575061032e826110bb565b6000908152600260205260409020546001600160a01b0316151590565b600081815260046020526040902080546001600160a01b0319166001600160a01b0384169081179091558190610a9682610765565b6001600160a01b03167f8c5be1e5ebec7d5bd14f71427d1e84f3dd0314c0f7b2291e5b200ac8c7c3b92560405160405180910390a45050565b61076182826040518060200160405280600081525061110b565b610af282610a44565b610b555760405162461bcd60e51b815260206004820152602e60248201527f45524337323155524953746f726167653a2055524920736574206f66206e6f6e60448201526d32bc34b9ba32b73a103a37b5b2b760911b606482015260840161042e565b6000828152600b602090815260409091208251610564928401906117fa565b6000610b7f82610a44565b610be05760405162461bcd60e51b815260206004820152602c60248201527f4552433732313a206f70657261746f7220717565727920666f72206e6f6e657860448201526b34b9ba32b73a103a37b5b2b760a11b606482015260840161042e565b6000610beb83610765565b9050806001600160a01b0316846001600160a01b03161480610c265750836001600160a01b0316610c1b846103c6565b6001600160a01b0316145b80610c5657506001600160a01b0380821660009081526005602090815260408083209388168352929052205460ff165b949350505050565b826001600160a01b0316610c7182610765565b6001600160a01b031614610cd55760405162461bcd60e51b815260206004820152602560248201527f4552433732313a207472616e736665722066726f6d20696e636f72726563742060448201526437bbb732b960d91b606482015260840161042e565b6001600160a01b038216610d375760405162461bcd60e51b8152602060048201526024808201527f4552433732313a207472616e7366657220746f20746865207a65726f206164646044820152637265737360e01b606482015260840161042e565b610d4283838361113e565b610d4d600082610a61565b6001600160a01b0383166000908152600360205260408120805460019290610d76908490611d25565b90915550506001600160a01b0382166000908152600360205260408120805460019290610da4908490611cf9565b909155505060008181526002602052604080822080546001600160a01b0319166001600160a01b0386811691821790925591518493918716917fddf252ad1be2c89b69c2b068fc378daa952ba7f163c4a11628f55a4df523b3ef91a4505050565b600a80546001600160a01b038381166001600160a01b0319831681179093556040519116919082907f8be0079c531659141344cd1fd0a4f28419497f9722a3daafe3b4186f6b6457e090600090a35050565b816001600160a01b0316836001600160a01b03161415610eb95760405162461bcd60e51b815260206004820152601960248201527f4552433732313a20617070726f766520746f2063616c6c657200000000000000604482015260640161042e565b6001600160a01b03838116600081815260056020908152604080832094871680845294825291829020805460ff191686151590811790915591519182527f17307eab39ab6107e8899845ad3d59bd9653f200f220920489ca2b5937696c31910160405180910390a3505050565b610f31848484610c5e565b610f3d84848484611149565b6109735760405162461bcd60e51b815260040161042e90611c21565b6060610f6482610a44565b610fca5760405162461bcd60e51b815260206004820152603160248201527f45524337323155524953746f726167653a2055524920717565727920666f72206044820152703737b732bc34b9ba32b73a103a37b5b2b760791b606482015260840161042e565b6000828152600b602052604081208054610fe390611d68565b80601f016020809104026020016040519081016040528092919081815260200182805461100f90611d68565b801561105c5780601f106110315761010080835404028352916020019161105c565b820191906000526020600020905b81548152906001019060200180831161103f57829003601f168201915b50505050509050600061106d611256565b9050805160001415611080575092915050565b8151156110b257808260405160200161109a929190611ba2565b60405160208183030381529060405292505050919050565b610c5684611265565b60006001600160e01b031982166380ac58cd60e01b14806110ec57506001600160e01b03198216635b5e139f60e01b145b8061032e57506301ffc9a760e01b6001600160e01b031983161461032e565b611115838361132f565b6111226000848484611149565b6105645760405162461bcd60e51b815260040161042e90611c21565b61056483838361146e565b60006001600160a01b0384163b1561124b57604051630a85bd0160e11b81526001600160a01b0385169063150b7a029061118d903390899088908890600401611bd1565b602060405180830381600087803b1580156111a757600080fd5b505af19250505080156111d7575060408051601f3d908101601f191682019092526111d491810190611b0f565b60015b611231573d808015611205576040519150601f19603f3d011682016040523d82523d6000602084013e61120a565b606091505b5080516112295760405162461bcd60e51b815260040161042e90611c21565b805181602001fd5b6001600160e01b031916630a85bd0160e11b149050610c56565b506001949350505050565b6060600c805461034390611d68565b606061127082610a44565b6112d45760405162461bcd60e51b815260206004820152602f60248201527f4552433732314d657461646174613a2055524920717565727920666f72206e6f60448201526e3732bc34b9ba32b73a103a37b5b2b760891b606482015260840161042e565b60006112de611256565b905060008151116112fe576040518060200160405280600081525061059a565b8061130884611526565b604051602001611319929190611ba2565b6040516020818303038152906040529392505050565b6001600160a01b0382166113855760405162461bcd60e51b815260206004820181905260248201527f4552433732313a206d696e7420746f20746865207a65726f2061646472657373604482015260640161042e565b61138e81610a44565b156113db5760405162461bcd60e51b815260206004820152601c60248201527f4552433732313a20746f6b656e20616c7265616479206d696e74656400000000604482015260640161042e565b6113e76000838361113e565b6001600160a01b0382166000908152600360205260408120805460019290611410908490611cf9565b909155505060008181526002602052604080822080546001600160a01b0319166001600160a01b03861690811790915590518392907fddf252ad1be2c89b69c2b068fc378daa952ba7f163c4a11628f55a4df523b3ef908290a45050565b6001600160a01b0383166114c9576114c481600880546000838152600960205260408120829055600182018355919091527ff3f7a9fe364faab93b216da50a3214154f22a0a2b415b23a84c8169e8b636ee30155565b6114ec565b816001600160a01b0316836001600160a01b0316146114ec576114ec8382611640565b6001600160a01b03821661150357610564816116dd565b826001600160a01b0316826001600160a01b0316146105645761056482826117b6565b60608161154a5750506040805180820190915260018152600360fc1b602082015290565b8160005b8115611574578061155e81611da3565b915061156d9050600a83611d11565b915061154e565b60008167ffffffffffffffff81111561159d57634e487b7160e01b600052604160045260246000fd5b6040519080825280601f01601f1916602001820160405280156115c7576020820181803683370190505b5090505b8415610c56576115dc600183611d25565b91506115e9600a86611dbe565b6115f4906030611cf9565b60f81b81838151811061161757634e487b7160e01b600052603260045260246000fd5b60200101906001600160f81b031916908160001a905350611639600a86611d11565b94506115cb565b6000600161164d8461086a565b6116579190611d25565b6000838152600760205260409020549091508082146116aa576001600160a01b03841660009081526006602090815260408083208584528252808320548484528184208190558352600790915290208190555b5060009182526007602090815260408084208490556001600160a01b039094168352600681528383209183525290812055565b6008546000906116ef90600190611d25565b6000838152600960205260408120546008805493945090928490811061172557634e487b7160e01b600052603260045260246000fd5b90600052602060002001549050806008838154811061175457634e487b7160e01b600052603260045260246000fd5b600091825260208083209091019290925582815260099091526040808220849055858252812055600880548061179a57634e487b7160e01b600052603160045260246000fd5b6001900381819060005260206000200160009055905550505050565b60006117c18361086a565b6001600160a01b039093166000908152600660209081526040808320868452825280832085905593825260079052919091209190915550565b82805461180690611d68565b90600052602060002090601f016020900481019282611828576000855561186e565b82601f1061184157805160ff191683800117855561186e565b8280016001018555821561186e579182015b8281111561186e578251825591602001919060010190611853565b5061187a92915061187e565b5090565b5b8082111561187a576000815560010161187f565b600067ffffffffffffffff808411156118ae576118ae611dfe565b604051601f8501601f19908116603f011681019082821181831017156118d6576118d6611dfe565b816040528093508581528686860111156118ef57600080fd5b858560208301376000602087830101525050509392505050565b80356001600160a01b038116811461192057600080fd5b919050565b600082601f830112611935578081fd5b61059a83833560208501611893565b600060208284031215611955578081fd5b61059a82611909565b60008060408385031215611970578081fd5b61197983611909565b915061198760208401611909565b90509250929050565b6000806000606084860312156119a4578081fd5b6119ad84611909565b92506119bb60208501611909565b9150604084013590509250925092565b600080600080608085870312156119e0578081fd5b6119e985611909565b93506119f760208601611909565b925060408501359150606085013567ffffffffffffffff811115611a19578182fd5b8501601f81018713611a29578182fd5b611a3887823560208401611893565b91505092959194509250565b60008060408385031215611a56578182fd5b611a5f83611909565b915060208301358015158114611a73578182fd5b809150509250929050565b60008060408385031215611a90578182fd5b611a9983611909565b9150602083013567ffffffffffffffff811115611ab4578182fd5b611ac085828601611925565b9150509250929050565b60008060408385031215611adc578182fd5b611ae583611909565b946020939093013593505050565b600060208284031215611b04578081fd5b813561059a81611e14565b600060208284031215611b20578081fd5b815161059a81611e14565b600060208284031215611b3c578081fd5b813567ffffffffffffffff811115611b52578182fd5b610c5684828501611925565b600060208284031215611b6f578081fd5b5035919050565b60008151808452611b8e816020860160208601611d3c565b601f01601f19169290920160200192915050565b60008351611bb4818460208801611d3c565b835190830190611bc8818360208801611d3c565b01949350505050565b6001600160a01b0385811682528416602082015260408101839052608060608201819052600090611c0490830184611b76565b9695505050505050565b60208152600061059a6020830184611b76565b60208082526032908201527f4552433732313a207472616e7366657220746f206e6f6e20455243373231526560408201527131b2b4bb32b91034b6b83632b6b2b73a32b960711b606082015260800190565b6020808252818101527f4f776e61626c653a2063616c6c6572206973206e6f7420746865206f776e6572604082015260600190565b60208082526031908201527f4552433732313a207472616e736665722063616c6c6572206973206e6f74206f6040820152701ddb995c881b9bdc88185c1c1c9bdd9959607a1b606082015260800190565b60008219821115611d0c57611d0c611dd2565b500190565b600082611d2057611d20611de8565b500490565b600082821015611d3757611d37611dd2565b500390565b60005b83811015611d57578181015183820152602001611d3f565b838111156109735750506000910152565b600181811c90821680611d7c57607f821691505b60208210811415611d9d57634e487b7160e01b600052602260045260246000fd5b50919050565b6000600019821415611db757611db7611dd2565b5060010190565b600082611dcd57611dcd611de8565b500690565b634e487b7160e01b600052601160045260246000fd5b634e487b7160e01b600052601260045260246000fd5b634e487b7160e01b600052604160045260246000fd5b6001600160e01b031981168114610a1c57600080fdfea264697066735822122039e7afc5ea9632b5b9bc0c15a26301117c3371e0ab776935e0b89356f753d0b064736f6c63430008040033a2646970667358221220c46b12280ed780357b1555ffaed5709ccf6e46f4ad42b523e49a4c5dd4d7e7af64736f6c63430008040033",
  "devdoc": {
    "kind": "dev",
    "methods": {},
    "version": 1
  },
  "userdoc": {
    "kind": "user",
    "methods": {},
    "version": 1
  },
  "storageLayout": {
    "storage": [
      {
        "astId": 4079,
        "contract": "contracts/NftFactory.sol:NftFactory",
        "label": "creator",
        "offset": 0,
        "slot": "0",
        "type": "t_mapping(t_address,t_address)"
      }
    ],
    "types": {
      "t_address": {
        "encoding": "inplace",
        "label": "address",
        "numberOfBytes": "20"
      },
      "t_mapping(t_address,t_address)": {
        "encoding": "mapping",
        "key": "t_address",
        "label": "mapping(address => address)",
        "numberOfBytes": "32",
        "value": "t_address"
      }
    }
  }
}